:10086A003C4289858589423C0000000000FF80AB3C
:10087A00FAAB80FF000000143C143E2AFF2A3E0017
:0C088A00000000221408142200000000EE
:10080000E4F508F509F50AE4F508E50804FFE5084C
:10081000250990087293FD1208960508E508C3940F
:100820000840E7050AE50AB40ADD0509E4F50AE52A
:0908300009B41DD3E4F50980CEE2
:0808D9007FBFDFEFF7FBFDFE1E
:02083900AD0709
:10083B00E4FBC2B5C2B674807E00A803088006CE66
:10084B00A2E713CE13D8F8FFEDF582EF558224FF04
:0E085B0092B4D2B6C2B60BBB08DCD2B5C2B5A1
:01086900226C
:04089600AE05AC07F8
:10089A00E4F50BAF06120839EC9008D893F5807F7F
:0908AA00017E001208B47580FF04
:0108B3002222
:0A08B400EF1FAC0670011E4C600E31
:0C08BE00750C02750DEDD50DFDD50CFA82
:0308CA0080E822A1
:030000000208CD26
:0C08CD00787FE4F6D8FD75810D0208006C
:00000001FF
