:1009600012088C8F12751301E512B51307AD137FB2
:0F097000011208FD0513E513D3940440EB80E159
:0C0998000A083F065B4F666D7D077F6715
:1008FD00EF14B40800505490091275F003A4C58389
:10090D0025F0C5837302092A02092E020932020954
:10091D003602093A02094202094A020952D2A4805A
:10092D000ED2A48012D2A48016D2A4801AC2A4D250
:10093D00A3D2A28016C2A4D2A3C2A2800EC2A4C208
:10094D00A3D2A28006C2A4C2A3C2A274082DF8E647
:03095D00F5802200
:0A097F00EF1FAC0670011E4C600E65
:0C0989007516027517EDD517FDD516FA8E
:0309950080E822D5
:10088C00E4F514F51520B1167F14FE12097F30B172
:10089C00FD7F147E0012097F75140075150120B0C0
:1008AC00177F147E0012097F30B0FD7F147E00127A
:1008BC00097F75140075150220B2177F147E001283
:1008CC00097F30B2FD7F147E0012097F751400750C
:1008DC00150320B3177F147E0012097F30B3FD7F00
:1008EC00147E0012097F751400751504AE14AF1533
:0108FC0022D9
:03000000020800F3
:0C080000787FE4F6D8FD758117020847E8
:10080C00020960E493A3F8E493A34003F68001F299
:10081C0008DFF48029E493A3F85407240CC8C333ED
:10082C00C4540F4420C8834004F456800146F6DFBC
:10083C00E4800B0102040810204080900998E47EAB
:10084C00019360BCA3FF543F30E509541FFEE493B1
:10085C00A360010ECF54C025E060A840B8E493A378
:10086C00FAE493A3F8E493A3C8C582C8CAC583CAA3
:10087C00F0A3C8C582C8CAC583CADFE9DEE780BE5B
:0109A4000052
:00000001FF
