:1008000012088A8E088F09E509640145087002F50F
:10081000A0E50964024508702D75A0FE7FF47E01F5
:100820001208FBAFA07801EF08800123D8FDF5A0E6
:100830007FF47E011208FB12088A8E088F09EF648C
:10084000044E70D88033E50964034508702B75A009
:10085000FE7FF47E011208FBAFA07801EF08800153
:1008600003D8FDF5A07FF47E011208FB12088A8EE2
:10087000088F09EF64044E70D8E5096404450860E8
:070880000302080075A0FF50
:0308870002080064
:0A08FB00EF1FAC0670011E4C600EEA
:0C090500750C02750DEDD50DFDD50CFA3A
:0309110080E82259
:10088A00E4F50AF50B20B1167F14FE1208FB30B10D
:10089A00FD7F147E001208FB750A00750B0120B05B
:1008AA00177F147E001208FB30B0FD7F147E001201
:1008BA0008FB750A00750B0220B2177F147E00121E
:1008CA0008FB30B2FD7F147E001208FB750A007522
:1008DA000B0320B3177F147E001208FB30B3FD7F91
:1008EA00147E001208FB750A00750B04AE0AAF0BE2
:0108FA0022DB
:03000000020914DE
:0C091400787FE4F6D8FD75810D02080024
:00000001FF
