:1009840012091D750C057B9C7AAD7D017F0102085F
:0109940082E0
:0A093B00EF1FAC0670011E4C600EA9
:0C0945007511027512EDD512FDD511FAE6
:0309510080E82219
:10095400C2A6C2A58F80D2A77F017E0012093BC226
:08096400A77F017E0002093BA0
:10096C00D2A6C2A58F80D2A77F017E0012093BC2FE
:08097C00A77F017E0002093B88
:10091D007F3C1209547F0C1209547F141209547F25
:0E092D00061209547F021209547F0102095478
:1008F9008F0E8D0F8B10E50EB40105E50F148009DD
:10090900E50EB4020AE50F243F4480FF120954AFF3
:040919001002096C53
:0A08C9008F138D148B158A16891702
:1008D300E4F518F518AB15AA16A9178518827583C0
:1008E30000120800FB600EE5142518FDAF13120873
:0508F300F9051880E08A
:0108F80022DD
:080882008F088D098A0A8B0B17
:10088A00E4F50D850C0DE50DD394004031E50925FD
:10089A000D14FDC005AE0AAF0B7C007D0A12082DAF
:1008AA00ED2430FBD005AF081208F9AE0AAF0B7C75
:0E08BA00007D0A12082D8E0A8F0B150D80C8C6
:0108C800220D
:030000000209955D
:0C099500787FE4F6D8FD75811802098413
:10080000BB010CE58229F582E5833AF583E02250AD
:1008100006E92582F8E622BBFE06E92582F8E222F7
:0D082000E58229F582E5833AF583E4932211
:10082D00BC000BBE0029EF8DF084FFADF022E4CCAF
:10083D00F875F008EF2FFFEE33FEEC33FCEE9DEC78
:10084D00984005FCEE9DFE0FD5F0E9E4CEFD22EDBE
:10085D00F8F5F0EE8420D21CFEADF075F008EF2F08
:10086D00FFED33FD4007985006D5F0F222C398FDF9
:05087D000FD5F0EA2296
:00000001FF
