:030A1700120AFDC3
:100A1A001208008F08E508C3940A5024E5089400D8
:100A2A00401E750D01E4FBFA7D017F01120A62E5A1
:100A3A0008FB7A00750D017D027F01120A6280D0DF
:100A4A00E508C3940A40C9E508FB7A00750D027DE2
:060A5A00017F01120A6297
:020A600080B85C
:10080000E4F509C293D292D291D2902097137F142B
:10081000FE120B1B3097FD7F147E00120B1B750917
:10082000012096147F147E00120B1B3096FD7F145E
:100830007E00120B1B7509052095147F147E001293
:100840000B1B3095FD7F147E00120B1B75090920D0
:1008500094147F147E00120B1B3094FD7F147E00D5
:10086000120B1B75090DD293C292D291D290209790
:10087000147F147E00120B1B3097FD7F147E001234
:100880000B1B7509022096147F147E00120B1B307F
:1008900096FD7F147E00120B1B7509062095147FB0
:1008A000147E00120B1B3095FD7F147E00120B1B73
:1008B00075090A2094147F147E00120B1B3094FDDE
:1008C0007F147E00120B1B75090ED293D292C29137
:1008D000D2902097147F147E00120B1B3097FD7F5F
:1008E000147E00120B1B7509032096147F147E00E2
:1008F000120B1B3096FD7F147E00120B1B7509072F
:100900002095147F147E00120B1B3095FD7F147E02
:1009100000120B1B75090B2094147F147E00120B20
:100920001B3094FD7F147E00120B1B75090FD293B0
:10093000D292D291C2902097147F147E00120B1B8A
:100940003097FD7F147E00120B1B7509042096144E
:100950007F147E00120B1B3096FD7F147E00120B5D
:100960001B7509082095147F147E00120B1B30950F
:10097000FD7F147E00120B1B75090C2094147F144C
:100980007E00120B1B3094FD7F147E00120B1B7532
:040990000910AF0992
:010994002240
:0A0B1B00EF1FAC0670011E4C600EC7
:0C0B25007512027513EDD513FDD512FA00
:030B310080E82237
:100B3400C2A6C2A58F80D2A77F017E00120B1BC262
:080B4400A77F017E00020B1BDC
:100B4C00D2A6C2A58F80D2A77F017E00120B1BC23A
:080B5C00A77F017E00020B1BC4
:100AFD007F3C120B347F0C120B347F14120B347F9E
:0E0B0D0006120B347F02120B347F01020B34F0
:100AD9008F0F8D108B11E50FB40105E510148009F6
:100AE900E50FB4020AE510243F4480FF120B34AF2E
:040AF90011020B4C8F
:0A0AA9008F148D158B168A1789181B
:100AB300E4F519F519AB16AA17A9188519827583D8
:100AC30000120995FB600EE5152519FDAF14120AF6
:050AD300D9051980E0C7
:010AD80022FB
:080A62008F098D0A8A0B8B0C31
:100A6A00E4F50E850D0EE50ED394004031E50A2516
:100A7A000E14FDC005AE0BAF0C7C007D0A1209C234
:100A8A00ED2430FBD005AF09120AD9AE0BAF0C7CAE
:0E0A9A00007D0A1209C28E0B8F0C150E80C84B
:010AA800222B
:03000000020B648C
:0C0B6400787FE4F6D8FD758119020A17AD
:10099500BB010CE58229F582E5833AF583E0225017
:1009A50006E92582F8E622BBFE06E92582F8E22261
:0D09B500E58229F582E5833AF583E493227B
:1009C200BC000BBE0029EF8DF084FFADF022E4CC19
:1009D200F875F008EF2FFFEE33FEEC33FCEE9DECE2
:1009E200984005FCEE9DFE0FD5F0E9E4CEFD22ED28
:1009F200F8F5F0EE8420D21CFEADF075F008EF2F72
:100A0200FFED33FD4007985006D5F0F222C398FD62
:050A12000FD5F0EA22FF
:00000001FF
