:0608C5000108000109001A
:1008AB0053890F438920C28FD28E758BA4758DA46B
:0A08BB00D2ABD2AF43B708D2BB2284
:03001B0002088C4C
:10088C00C0E0C0D00508E508B4640505097508008A
:0F089C00E509B46405B2A0750900D0D0D0E032F0
:0508CC001208AB80FEE4
:03000000020800F3
:0C080000787FE4F6D8FD758109020847F6
:10080C000208CCE493A3F8E493A34003F68001F22E
:10081C0008DFF48029E493A3F85407240CC8C333ED
:10082C00C4540F4420C8834004F456800146F6DFBC
:10083C00E4800B01020408102040809008C5E47E7F
:10084C00019360BCA3FF543F30E509541FFEE493B1
:10085C00A360010ECF54C025E060A840B8E493A378
:10086C00FAE493A3F8E493A3C8C582C8CAC583CAA3
:10087C00F0A3C8C582C8CAC583CADFE9DEE780BE5B
:0108CB00002C
:00000001FF
